{
  "contractName": "Hello",
  "abi": [
    {
      "anonymous": false,
      "inputs": [
        {
          "indexed": true,
          "internalType": "address",
          "name": "previousOwner",
          "type": "address"
        },
        {
          "indexed": true,
          "internalType": "address",
          "name": "newOwner",
          "type": "address"
        }
      ],
      "name": "OwnershipTransferred",
      "type": "event"
    },
    {
      "inputs": [],
      "name": "owner",
      "outputs": [
        {
          "internalType": "address",
          "name": "",
          "type": "address"
        }
      ],
      "stateMutability": "view",
      "type": "function",
      "constant": true
    },
    {
      "inputs": [],
      "name": "renounceOwnership",
      "outputs": [],
      "stateMutability": "nonpayable",
      "type": "function"
    },
    {
      "inputs": [
        {
          "internalType": "address",
          "name": "newOwner",
          "type": "address"
        }
      ],
      "name": "transferOwnership",
      "outputs": [],
      "stateMutability": "nonpayable",
      "type": "function"
    },
    {
      "inputs": [],
      "name": "greet",
      "outputs": [
        {
          "internalType": "string",
          "name": "",
          "type": "string"
        }
      ],
      "stateMutability": "view",
      "type": "function",
      "constant": true
    },
    {
      "inputs": [
        {
          "internalType": "string",
          "name": "_newGreetie",
          "type": "string"
        }
      ],
      "name": "setGreetie",
      "outputs": [],
      "stateMutability": "nonpayable",
      "type": "function"
    }
  ],
  "bytecode": "0x60806040526040518060400160405280600781526020017f48656c6c6f2c20000000000000000000000000000000000000000000000000008152506001908051906020019061004f929190610196565b506040518060400160405280600681526020017f576f726c642100000000000000000000000000000000000000000000000000008152506002908051906020019061009b929190610196565b503480156100a857600080fd5b506100c56100ba6100ca60201b60201c565b6100d260201b60201c565b610299565b600033905090565b60008060009054906101000a900473ffffffffffffffffffffffffffffffffffffffff169050816000806101000a81548173ffffffffffffffffffffffffffffffffffffffff021916908373ffffffffffffffffffffffffffffffffffffffff1602179055508173ffffffffffffffffffffffffffffffffffffffff168173ffffffffffffffffffffffffffffffffffffffff167f8be0079c531659141344cd1fd0a4f28419497f9722a3daafe3b4186f6b6457e060405160405180910390a35050565b8280546101a290610268565b90600052602060002090601f0160209004810192826101c4576000855561020b565b82601f106101dd57805160ff191683800117855561020b565b8280016001018555821561020b579182015b8281111561020a5782518255916020019190600101906101ef565b5b509050610218919061021c565b5090565b5b8082111561023557600081600090555060010161021d565b5090565b7f4e487b7100000000000000000000000000000000000000000000000000000000600052602260045260246000fd5b6000600282049050600182168061028057607f821691505b60208210810361029357610292610239565b5b50919050565b61093180620002a96000396000f3fe608060405234801561001057600080fd5b50600436106100575760003560e01c8063715018a61461005c5780638da5cb5b14610066578063cfae321714610084578063f2fde38b146100a2578063fe3cb418146100be575b600080fd5b6100646100da565b005b61006e610162565b60405161007b91906104ef565b60405180910390f35b61008c61018b565b60405161009991906105a3565b60405180910390f35b6100bc60048036038101906100b791906105fb565b6101b6565b005b6100d860048036038101906100d3919061068d565b6102ad565b005b6100e261033f565b73ffffffffffffffffffffffffffffffffffffffff16610100610162565b73ffffffffffffffffffffffffffffffffffffffff1614610156576040517f08c379a000000000000000000000000000000000000000000000000000000000815260040161014d90610726565b60405180910390fd5b6101606000610347565b565b60008060009054906101000a900473ffffffffffffffffffffffffffffffffffffffff16905090565b6060600160026040516020016101a2929190610845565b604051602081830303815290604052905090565b6101be61033f565b73ffffffffffffffffffffffffffffffffffffffff166101dc610162565b73ffffffffffffffffffffffffffffffffffffffff1614610232576040517f08c379a000000000000000000000000000000000000000000000000000000000815260040161022990610726565b60405180910390fd5b600073ffffffffffffffffffffffffffffffffffffffff168173ffffffffffffffffffffffffffffffffffffffff16036102a1576040517f08c379a0000000000000000000000000000000000000000000000000000000008152600401610298906108db565b60405180910390fd5b6102aa81610347565b50565b6102b561033f565b73ffffffffffffffffffffffffffffffffffffffff166102d3610162565b73ffffffffffffffffffffffffffffffffffffffff1614610329576040517f08c379a000000000000000000000000000000000000000000000000000000000815260040161032090610726565b60405180910390fd5b81816002919061033a92919061040b565b505050565b600033905090565b60008060009054906101000a900473ffffffffffffffffffffffffffffffffffffffff169050816000806101000a81548173ffffffffffffffffffffffffffffffffffffffff021916908373ffffffffffffffffffffffffffffffffffffffff1602179055508173ffffffffffffffffffffffffffffffffffffffff168173ffffffffffffffffffffffffffffffffffffffff167f8be0079c531659141344cd1fd0a4f28419497f9722a3daafe3b4186f6b6457e060405160405180910390a35050565b82805461041790610775565b90600052602060002090601f0160209004810192826104395760008555610480565b82601f1061045257803560ff1916838001178555610480565b82800160010185558215610480579182015b8281111561047f578235825591602001919060010190610464565b5b50905061048d9190610491565b5090565b5b808211156104aa576000816000905550600101610492565b5090565b600073ffffffffffffffffffffffffffffffffffffffff82169050919050565b60006104d9826104ae565b9050919050565b6104e9816104ce565b82525050565b600060208201905061050460008301846104e0565b92915050565b600081519050919050565b600082825260208201905092915050565b60005b83811015610544578082015181840152602081019050610529565b83811115610553576000848401525b50505050565b6000601f19601f8301169050919050565b60006105758261050a565b61057f8185610515565b935061058f818560208601610526565b61059881610559565b840191505092915050565b600060208201905081810360008301526105bd818461056a565b905092915050565b600080fd5b600080fd5b6105d8816104ce565b81146105e357600080fd5b50565b6000813590506105f5816105cf565b92915050565b600060208284031215610611576106106105c5565b5b600061061f848285016105e6565b91505092915050565b600080fd5b600080fd5b600080fd5b60008083601f84011261064d5761064c610628565b5b8235905067ffffffffffffffff81111561066a5761066961062d565b5b60208301915083600182028301111561068657610685610632565b5b9250929050565b600080602083850312156106a4576106a36105c5565b5b600083013567ffffffffffffffff8111156106c2576106c16105ca565b5b6106ce85828601610637565b92509250509250929050565b7f4f776e61626c653a2063616c6c6572206973206e6f7420746865206f776e6572600082015250565b6000610710602083610515565b915061071b826106da565b602082019050919050565b6000602082019050818103600083015261073f81610703565b9050919050565b7f4e487b7100000000000000000000000000000000000000000000000000000000600052602260045260246000fd5b6000600282049050600182168061078d57607f821691505b6020821081036107a05761079f610746565b5b50919050565b600081905092915050565b60008190508160005260206000209050919050565b600081546107d381610775565b6107dd81866107a6565b945060018216600081146107f857600181146108095761083c565b60ff1983168652818601935061083c565b610812856107b1565b60005b8381101561083457815481890152600182019150602081019050610815565b838801955050505b50505092915050565b600061085182856107c6565b915061085d82846107c6565b91508190509392505050565b7f4f776e61626c653a206e6577206f776e657220697320746865207a65726f206160008201527f6464726573730000000000000000000000000000000000000000000000000000602082015250565b60006108c5602683610515565b91506108d082610869565b604082019050919050565b600060208201905081810360008301526108f4816108b8565b905091905056fea2646970667358221220c09d26f1bae29ca245b0b64d26a6dc465339105a6241abcd822969f16745fceb64736f6c634300080e0033",
  "immutableReferences": {},
  "source": "// SPDX-License-Identifier: MIT\npragma solidity >=0.4.22 <0.9.0;\nimport \"@openzeppelin/contracts/access/ownable.sol\";\n\ncontract Hello is Ownable {\n    string  private _gret = \"Hello, \";\n    string  private _greting = \"World!\";\n\n\n    function greet() external view returns (string memory) {\n        return  string(abi.encodePacked(_gret, _greting));\n    }\n\n    function setGreetie(string calldata  _newGreetie) external onlyOwner {\n        _greting = _newGreetie;\n    } \n}\n",
  "sourcePath": "C:\\Users\\PedramPZH\\Desktop\\Blackchain\\sveltr_web3\\contracts\\Hello.sol",
  "compiler": {
    "name": "solc",
    "version": "0.8.14+commit.80d49f37.Emscripten.clang"
  },
  "schemaVersion": "3.4.7",
  "updatedAt": "2022-05-30T20:24:39.793Z",
  "networkType": "ethereum",
  "devdoc": {
    "kind": "dev",
    "methods": {
      "owner()": {
        "details": "Returns the address of the current owner."
      },
      "renounceOwnership()": {
        "details": "Leaves the contract without owner. It will not be possible to call `onlyOwner` functions anymore. Can only be called by the current owner. NOTE: Renouncing ownership will leave the contract without an owner, thereby removing any functionality that is only available to the owner."
      },
      "transferOwnership(address)": {
        "details": "Transfers ownership of the contract to a new account (`newOwner`). Can only be called by the current owner."
      }
    },
    "version": 1
  },
  "userdoc": {
    "kind": "user",
    "methods": {},
    "version": 1
  }
}